:020000040800F2
:10000000481D0020690200087B260008EB23000839
:100010007926000875060008D932000800000000A3
:100020000000000000000000000000002929000876
:10003000A107000800000000112700082B29000874
:10004000830200088302000883020008830200087C
:10005000830200088302000883020008830200086C
:10006000830200088302000883020008830200085C
:10007000E9060008830200088302000883020008E2
:10008000830200088302000883020008830200083C
:100090007906000883020008830200088302000832
:1000A000830200088302000883020008830200081C
:1000B00083020008D5290008830200088302000893
:1000C00083020008830200088302000883020008FC
:1000D00083020008830200088302000881310008BF
:1000E00083020008830200088302000883020008DC
:1000F00083020008830200088302000883020008CC
:1001000083020008830200088302000883020008BB
:1001100083020008830200088302000883020008AB
:1001200083020008F50600080107000883020008A2
:10013000830200088302000883020008830200088B
:100140008506000883020008830200088302000875
:10015000830200080D07000819070008453200084F
:10016000830200088302000883020008830200085B
:1001700083020008830200088302000800000000D8
:10018000830200088302000800F002F800F05CF827
:100190000AA090E8000C82448344AAF10107DA45E2
:1001A00001D100F051F8AFF2090EBAE80F0013F0D8
:1001B000010F18BFFB1A43F00103184764670000E2
:1001C000846700000A444FF0000C10F8013B13F064
:1001D000070408BF10F8014B1D1108BF10F8015BA0
:1001E000641E05D010F8016B641E01F8016BF9D193
:1001F00013F0080F1EBF10F8014BAD1C0C1B09D1EA
:100200006D1E58BF01F801CBFAD505E014F8016B5B
:1002100001F8016B6D1EF9D59142D6D370470000ED
:100220000023002400250026103A28BF78C1FBD8FF
:10023000520728BF30C148BF0B6070471FB506F09A
:1002400042F91FBD10B510BD00F07DF91146FFF752
:10025000F5FF04F065FC00F09BF903B4FFF7F2FF33
:1002600003BC00F09FF90000094880470948004797
:10027000FEE7FEE7FEE7FEE7FEE7FEE7FEE7FEE756
:10028000FEE7FEE704480549054A064B70470000B3
:10029000C52900088901000848170020481D0020D2
:1002A000481900204819002053EA020C00F0698028
:1002B0002DE9F04B4FF00006002B1FBFB3FA83F57A
:1002C00003FA05F424FA05F65E4012BF1643B2FAAB
:1002D00082F502FA05F4C5F120051EBF22FA05FCDD
:1002E00044EA0C04203556EA044C4FEA144418BF83
:1002F000641C4FF000084FF00009904271EB030CB2
:1003000039D3002919BFB1FA81F701FA07F6B0FA1B
:1003100080F700FA07F6C7F120071EBF20FA07FC96
:1003200046EA0C062037B6FBF4FCA7EB0507103FA6
:1003300007F01F0BCBF120060CFA0BFB2CFA06F68C
:1003400044BFB3460026202FA4BF5E464FF0000BEB
:100350005BEA060C08BF4FF0010B19EB0B09ABFB76
:10036000027C48EB0608C01B06FB02CC0BFB03CC4F
:1003700071EB0C01C1E70B46024641464846BDE819
:10038000F08B13B54FF000004FF00001AFF3008089
:10039000BDE81C407047032A40F2308010F0030C87
:1003A00000F0158011F8013BBCF1020F624498BFC8
:1003B00011F801CB00F8013B38BF11F8013BA2F165
:1003C000040298BF00F801CB38BF00F8013B11F0E0
:1003D000030300F07C80083AC0F0088051F8043B29
:1003E000083A51F804CBA0E80810F5E7121D5CBFED
:1003F00051F8043B40F8043BAFF30080D20724BF20
:1004000011F8013B11F801CB48BF11F8012B24BFB3
:1004100000F8013B00F801CB48BF00F8012B704702
:100420004FF000020429C0F0128010F0030C00F01D
:100430001B80CCF1040CBCF1020F18BF00F8012B9B
:10044000A8BF20F8022BA1EB0C0100F00DB85FEA69
:10045000C17C24BF00F8012B00F8012B48BF00F835
:10046000012B70474FF0000200B5134694469646A4
:10047000203922BFA0E80C50A0E80C50B1F12001B7
:10048000BFF4F7AF090728BFA0E80C5048BF0CC065
:100490005DF804EB890028BF40F8042B08BF7047C3
:1004A00048BF20F8022B11F0804F18BF00F8012B35
:1004B000704770477047704710B500F03FF800680C
:1004C00010BD10B5044600F039F8046010BD10B539
:1004D000203AC0F00B80B1E81850203AA0E818503C
:1004E000B1E81850A0E81850BFF4F5AF5FEA027CFD
:1004F00024BFB1E81850A0E8185044BF18C918C06C
:10050000BDE810405FEA827C24BF51F8043B40F80C
:10051000043B08BF7047D20728BF31F8023B48BFF1
:1005200011F8012B28BF20F8023B48BF00F8012B2F
:100530007047000000487047E416002000487047EC
:10054000E416002070477546FFF7F4FFAE4605003D
:100550006946534620F00700854618B020B5FFF7DE
:1005600091FEBDE820404FF000064FF000074FF02D
:1005700000084FF0000B21F00701AC46ACE8C009C1
:10058000ACE8C009ACE8C009ACE8C0098D467047CA
:1005900010B50446AFF300802046BDE81040FFF7D9
:1005A0005CBE000001491820ABBEFEE72600020039
:1005B000F1EE401ADFED282A31EEE02A70EEC00A93
:1005C00026482849F0EE421A01EE222AB0EE600ACF
:1005D00041EE620AB0EE403A41EE621A01EE223A72
:1005E00080ED002A9FED1E0AC0ED040A80ED083A56
:1005F000C0ED0C1A22EE001A60EE800A23EE002AEB
:1006000061EE801AB3EE030A80ED011A21EE001AA2
:10061000C0ED050A80ED092AC0ED0D1ABDEEC11A24
:1006200060EE800A11EE100AFDEEE00A4042C86258
:100630000D480E49C0ED0B0A62EE000A21EE800A59
:10064000FDEEE00ABDEEC00A10EE900A4042C8621C
:10065000074880ED0B0A7047713D1E42C804002018
:100660004276F43F680500208006002098070020AD
:10067000B0080020FEE70000014800F006BA0000C4
:1006800084010020014800F000BA0000AC01002005
:1006900030B5124A87B00023CC5CD4545B1C082BC5
:1006A000FADB0F4C00230822A04205D10B4D012498
:1006B000103D2C60940103E00A4CA04207D10724AE
:1006C000CDE900430293CDE903328DF814300A4698
:1006D00006AB694600F079F807B030BD780100201C
:1006E00084010020AC010020014800F0F3BC0000B0
:1006F000A8030020014800F0EDBC00000804002021
:10070000014800F0E7BC0000E8020020014800F0CA
:10071000E1BC000068040020014800F0DBBC0000E0
:100720004803002001681823CAB2103AB2FBF3F262
:10073000054B6FF30901032A9B5CC36500D9091DB2
:100740008165084670470000DA64000810B501466C
:1007500000208B698A6A4FF0C07453B1B3F5005F13
:1007600015D072B1012A0CD0022A0AD0032A09D16D
:1007700004E01AB1012A06D0022A03D1C96AC901CC
:1007800000D5012010BDC96AA142FAD010BD002ACF
:10079000F7D0012AF2D0022AF3D0032AF3D010BDF9
:1007A000704772B6FEE790F82020012A07D0022A8F
:1007B00005D0416A41F48021416201207047006800
:1007C00042690A43426100207047F0B590F820501A
:1007D0000468A468012D05D0022D03D0416A41F4BC
:1007E000802153E014F0406F01D1E5004BD5C4F3F4
:1007F0000164022C03D9416A41F4000146E001255D
:10080000A5401D608D684FF4C0739DB1CE6835431F
:100810004E6845EAC605066803EB0417F5514FF428
:10082000C275076805EB04150E697E51097D012923
:1008300005D009E00E88CD6845EA4655EBE701682A
:100840004E5946F480764E511179D2F805504FF446
:10085000C67641EA0525016806EB04168D5111782C
:10086000D2F801204FF4C47541EA0221026805EB79
:1008700004155151006803EB0411425842F0010283
:1008800042500020F0BD416A41F400114162012054
:10089000F0BD000010B590F82020012A07D0022AF0
:1008A00005D0416A41F480214162012010BD3B48DE
:1008B000D0F8002242F00102C0F80022D0F8002255
:1008C00022F47C52C0F80022D0F800224B6A42EA9F
:1008D0000322C0F800220A7D02F01F0301229A4081
:1008E000D0F81C329343C0F81C32CB69B3B9D0F8AE
:1008F0000C329343C0F80C328C894B6864F31F436D
:100900004C6900EBC404C4F840320C890B6864F3F2
:100910001F434C6900EBC404C4F84432CB69012B7B
:1009200016D1D0F80C321343C0F80C320C884B6847
:1009300064F31F434C6900EBC404C4F840320C89D3
:10094000CB6864F31F434C6900EBC404C4F8443221
:100950008B69002BD0F804320ED01343C0F8043258
:100960000B69002BD0F8143208D01343C0F81432AE
:10097000096A012904D008E09343EFE79343F5E7C0
:10098000D0F81C121143C0F81C12D0F8001221F04C
:100990000101C0F80012002010BD000000640040FA
:1009A000704730B590F82040012C05D0022C03D0C0
:1009B000416A41F480215DE00468002955D0246932
:1009C000A40754D04FF4D874056804EB01142D59D2
:1009D00015F00405956005682D594ED0ED08556059
:1009E00005682C5904F00204D4604FF4DA740568E9
:1009F00004EB01142D5905F00F05156105682D59FB
:100A0000C5F30725956105682C59240C54614FF4F2
:100A1000DC72046802EB0112A4581C700468A4582C
:100A2000240A5C700468A458240C9C700468A258C2
:100A3000120EDA704FF4DE72046802EB0112A45851
:100A40001C710468A458240A5C710468A458240C1E
:100A50009C710468A258120EDA71006881B10169B4
:100A600041F020010161002030BDE468A8E7416A3F
:100A700041F400114162012030BD6D0D1560AFE7FA
:100A8000C16841F02001C160EDE72DE9F05F054646
:100A9000006800244669D0F804908768D0F80CB04C
:100AA000D0F810A0D0F81880F10748D0F90714D07A
:100AB00001218160B80703D5284600F004FB0CE053
:100AC000780702D54FF4006407E0380702D54FF4E9
:100AD000805402E0284600F0F5FAF80516D529689A
:100AE0004FF480708860B80503D5284600F0EDFA11
:100AF0000CE0780502D544F4005407E0380502D52F
:100B000044F4804402E0284600F0DEFAF80316D5EB
:100B100029684FF480308860B80303D5284600F078
:100B2000D6FA0CE0780302D544F4004407E0380319
:100B300002D544F4803402E0284600F0C7FA3007BA
:100B400007D55FEACB6004D52968102044F400740F
:100B5000C86070074FF0080707D55FEA0B7004D52F
:100B60002868C760284600F099F9B00706D52868BC
:100B7000C068800702D0284600F092F9700607D5B9
:100B80005FEACA6004D52968102044F480640861D3
:100B9000B00607D55FEA0A7004D5286807612846C1
:100BA00000F060FAF00606D528680069800702D0D8
:100BB000284600F058FAB00308D55FEAC96005D5A9
:100BC000296810204860284600F04EFAF00307D547
:100BD0005FEA097004D528684760284600F078FA73
:100BE000300446D55FEA497040D5F00504D55FEA88
:100BF000C87001D044F00104B00504D55FEA8870E4
:100C000001D544F00204700504D55FEA487001D5AF
:100C100044F00404300529D518F0700F26D008F0F0
:100C20007000402815D006DC102809D020280AD0F2
:100C3000302816D10AE050280ED0602811D10EE0DD
:100C400044F008040DE044F010040AE044F02004ED
:100C500007E044F0400404E044F0800401E044F480
:100C600080742868816921F07001816129680420FD
:100C70004860002C05D0686A204368622846FFF768
:100C80008FFEBDE8F09F70B5040003D094F82000FB
:100C900010B104E0012070BD204600F081F820680A
:100CA000016841F00101016000F046FC054605269F
:100CB00004E000F041FC401B0A2811D8206840687D
:100CC000C007F6D02068016821F00201016000F041
:100CD00033FC05460BE000F02FFC401B0A2806D928
:100CE000606A40F40030606284F82060D2E72068D7
:100CF00040688007EFD4207E0128206801683DD03D
:100D000021F080010160607E01282068016838D0F0
:100D100021F040010160A07E01282068016833D0E5
:100D200021F020010160E07E0128206801682ED0BA
:100D300041F010010160207F01282068016829D05E
:100D400021F008010160607F01282068016824D03B
:100D500021F004010160D4E902010843D4E904123E
:100D6000114308436168491E08432168C861002097
:100D70006062012084F82000002070BD41F08001F5
:100D8000C0E741F04001C5E741F02001CAE721F08A
:100D90001001CFE741F00801D4E741F00401D9E7A1
:100DA000F0B587B0044614216846FFF75BFB364B6D
:100DB0003648DFF8D0E01968D4F800C0334A03257C
:100DC0000226092710300024491CF44522D119605D
:100DD000012907D1016841F000710160006800F04D
:100DE00000700590106840F0080010601068CDE9B0
:100DF000005600F00800CDE9047069462448CDE9AA
:100E0000024500F0A1FA00220121142000F002FCAA
:100E1000142032E0DFF87CE0F44530D1D0F800C097
:100E20004CF0806CC0F800C0D0F800C001290CF074
:100E3000806CCDF814C0196007D1016841F00071D1
:100E40000160006800F000700590106840F002003A
:100E50001060106802AB00F0020005906020CDE940
:100E6000000683E8B00069460B4800F06DFA0022E6
:100E70000121402000F0CEFB402000F0BDFB07B078
:100E8000F0BD000000640040000000203038024047
:100E9000000C02400068004000040240704700005F
:100EA000F0B5644E0127644989B07760884261D10A
:100EB00007AB6A4600216048FFF773FD5E4907A84B
:100EC00004F068F8B0F90010B0F9043000EE101A20
:100ED000B0F902100098B8EEC00A40F20324A0F264
:100EE0000322A0421ED00EDC032838D0901C36D03E
:100EF000012815D1BCEEC00A0A4610EE100A80B2D5
:100F000001464E4833E0012A15D0052A1CD0082A94
:100F100006D1BDEEC00A10EE100A00B204F066F869
:100F200009B0F0BDBCEEC00A0A4610EE100A80B24D
:100F3000014643481BE0BCEEC00A0A4610EE100A08
:100F400080B201463F4812E0BCEEC00A0A4610EEED
:100F5000100A80B201463C4801F0DCFDE0E7BCEE3F
:100F6000C00A0A4610EE100A80B20146374803F064
:100F70002FFDD5E736498842D2D107AB6A4600211A
:100F80003348FFF70EFD334D00B1AF71304907A86C
:100F900004F000F804460098092824D0072826D039
:100FA000052834D006283CD01028B9D16088217893
:100FB000DFED290A40EA012000B200EE100AB8EE87
:100FC000C00A80EE201A86ED031AE088217940EAF3
:100FD000012000B200EE100AB8EEC00ABDEEC00A51
:100FE00086ED020A9CE72078A871E87198E760888E
:100FF000217840EA01202880E088217940EA012018
:1010000068806089217A40EA0120A88088E72088EA
:10101000012885D11148076004F000FA00202080E3
:101020007EE7E088217940EA01200D49A1F84001DE
:1010300076E700006801002084010020800600207F
:1010400098070020B00800204C0C00206805002004
:10105000AC0100205C0500200000C8421C000020FC
:10106000200D0020704770477047000070B504469F
:1010700090F82000012804D0606A40F400206062EB
:1010800018E0022084F820002068016821F00101A6
:10109000016000F051FA05460EE000BF00F04CFA86
:1010A000401B0A2808D9606A40F4003060620520BD
:1010B00084F82000012070BD20684068C007EDD191
:1010C000606270BD704770477047704770477047E7
:1010D000704700002DE9F84304464FF00009CDF8B1
:1010E000009063484FF41651A56D0068B0FBF1F70E
:1010F0002E6894F85C10082000FA01F131420FD0FC
:1011000021680A6852070BD50A6822F004020A60B7
:1011100094F85C108840A860606D40F00100606544
:1011200094F85C104FF0010808FA01F0304208D042
:1011300021684969090604D5A860606D40F0020085
:10114000606594F85C1004208840304208D0216823
:101150000968890704D5A860606D40F004006065E7
:1011600094F85C1010208840304218D0216809683B
:10117000090714D5A86020680168490304D50068F0
:10118000000308D5A16C07E00168C90503D4016814
:1011900021F008010160216C09B12046884794F8CC
:1011A0005C1020208840304231D021680968C9068F
:1011B0002DD5A86094F8350005282068016806D070
:1011C000490347D5006800031DD4616C1CE021F081
:1011D000160101602068416921F080014161206CA5
:1011E00008B9A06C20B12068016821F008010160F5
:1011F00094F85C103F208840A86084F8358084F81B
:101200003490216D1FE0E16B09B120468847606D85
:1012100000282BD0606DC00714D0052084F835005D
:101220002068016821F0010101600098401C0090D5
:10123000B84203D820680068C007F6D184F835802A
:1012400084F83490E16C002910D001B02046BDE84C
:10125000F04308470168C905D5D4016821F01001A1
:10126000016084F8358084F83490CCE7BDE8F883D9
:10127000100000202DE9F041044600F05DF906461B
:101280005CB1022084F83500002584F834502068D1
:10129000016821F0010101600DE00120BDE8F0814D
:1012A00000F04AF9801B052805D92020606503203D
:1012B00084F83500F2E720680068C007F0D12268A2
:1012C000116820480140D4E901031843D4E90336EA
:1012D0003343184363691843A3691843E369184308
:1012E000236A18430843616A042903D1D4E90B1324
:1012F00019430843106020684069666A20F00701BE
:1013000030460E43012704280CD1A06A0643E06A48
:1013100040B12046FFF71AFA20B14020606584F8FA
:101320003570BAE7206846612046FFF7FBF994F86C
:101330005C203F2191408160656584F83570002014
:10134000ACE700003F8010F02DE9F84FDFF8BCA1BA
:10135000002201250AF1040B03264FF00F090BF1BF
:10136000040E00BF0B6805FA02F42340A34270D1BB
:101370000F7907F00307012F01D0022F16D18768DC
:101380004FEA420806FA08FC27EA0C07D1F80CC01D
:101390000CFA08FC4CEA070CC0F808C04768A743E1
:1013A0000C79C4F3001494403C4344600C79E4434A
:1013B000A4070AD0C4684FEA420C06FA0CF7BC43F3
:1013C0008F6807FA0CF72743C7600C7904F0030411
:1013D000022C12D1D40800EB840CDCF82040570713
:1013E000FF0E09FA07F824EA0804D1F8108008FA79
:1013F00007F848EA0408CCF8208004684FEA420C59
:1014000006FA0CF7BC430F7907F0030707FA0CF74D
:10141000274307604C6814F4403F70D03C4C276869
:1014200047F480472760246822F0030704F48044CF
:101430000094384C07EB040CDCF8084897074FEA97
:10144000177809FA08F7BC43334FB84202D1002796
:1014500024E054E0314FB84201D101271EE0304F63
:10146000B84201D1022719E02E4FB84201D103271B
:1014700014E02D4FB84201D104270FE02B4FB842A2
:1014800001D105270AE02A4FB84201D1062705E01D
:10149000284FB84201D1072700E0082707FA08F7CC
:1014A0002743CCF80878DAF800405746D1F804C052
:1014B0009C435FEACC3C00D51C433C60DBF8004019
:1014C0005F46D1F804C09C435FEA8C3C00D51C43C6
:1014D0003C60DEF800407746D1F804C09C435FEAE8
:1014E000CC2C00D51C433C60084F0C373C68D1F82D
:1014F00004C09C435FEA8C2C00D51C433C60521C0A
:10150000102AFFF42FAFBDE8F88F0000003C014027
:101510004438024000300140000002400004024014
:1015200000080240000C024000100240001402407B
:1015300000180240001C024001488068704700000B
:1015400004000020024881680278114481607047DD
:10155000040000200B4810B5016841F400710160DF
:10156000016841F480610160016841F480710160AB
:10157000032000F06FF80F2000F006F800F024F8C8
:10158000002010BD003C024070B50D4D04464FF4E4
:101590007A712878B1FBF0F00A490968B1FBF0F0E4
:1015A00000F00CFB48B9102C07D200222146501E37
:1015B00000F030F800206C6070BD012070BD0000AC
:1015C00004000020100000200A4808B5016841F41A
:1015D00080410160006800F4804000900548001FD1
:1015E000016841F080510160006800F08050009077
:1015F00008BD000044380240002809DB00F01F024B
:10160000012191404009800000F1E020C0F8001164
:1016100070470000F0B40E4B1B680C46C3F3022366
:10162000C3F10705042D00D90425191D072901D28E
:10163000002300E0DB1E012606FA05F1491E2140C9
:1016400099409E40761E16403143F0BC01F090BE9A
:101650000CED00E0064900F0070208684FF6FF03B2
:10166000184040EA0220034A104308607047000017
:101670000CED00E00000FA052DE9F0470E460500EC
:1016800065D0DFF81481D8F80000F7B200F0070049
:10169000B04207D288F80070D8F8000000F00700C8
:1016A000B04254D128683D4C810712D5400703D57C
:1016B000206840F4E05020602878000703D52068B7
:1016C00040F4604020602068A96820F0F0000843E2
:1016D00020602878C0072DD0304968680839012873
:1016E00012D0022813D0032811D0096889070029D5
:1016F0002DDA216821F0030101432160FFF71CFF6F
:10170000814641F2883A0EE009688903EFE70968EB
:101710008901ECE7FFF710FFA0EB0901514502D961
:101720000320BDE8F0872068696800F00C00B0EB8A
:10173000810FEFD1D8F80010404601F00701B14207
:1017400007D90770006800F00700B04201D00120FF
:10175000E7E72878400705D52068E96820F4E050DD
:10176000084320602878000706D52068296920F4FE
:10177000604040EAC100206000F038F82168084A63
:10178000C1F30311515CC84006490860064800686F
:10179000FFF7FAFE0020C4E7003C02400838024090
:1017A000E2640008100000200800002004480549F9
:1017B00000680968044AC1F38221515CC84070473F
:1017C0001000002008380240F2640008044805496F
:1017D00000680968044AC1F34231515CC84070474F
:1017E0001000002008380240F2640008154810B5C7
:1017F000006810F00C02144813D01449042A0FD0CA
:10180000082A0ED10F4C241F2268236802F03F02E1
:101810005B0207D52068C0F38810A0FB010106E039
:10182000084610BD2168C1F38811A1FB0001002307
:10183000FEF73AFD2168C1F30141491C4900B0FBA4
:10184000F1F010BD083802400024F400001BB7007E
:101850002DE9F84F04006ED02078DFF84C93C007D4
:10186000A9F104054AD009F104000168C1F381011E
:10187000012908D00068C0F3810002280AD1D9F8F4
:101880000000400206D52868800337D5606800282C
:10189000E1D033E06068B0F5803F10D0B0F5A02F04
:1018A000286810D020F480302860286820F4802038
:1018B00028606068A8B1FFF73FFE06460DE0286883
:1018C00040F48030F4E740F480202860F7E700BF60
:1018D000FFF732FE801B642873D828688003F7D591
:1018E0000CE0FFF729FE064605E000BFFFF724FEE7
:1018F000801B6428F0D828688003F7D42078DFF8AC
:10190000AC8280074FF0000A3ED5A748001D016851
:1019100011F00C0F08D00068C0F3810002280BD131
:10192000D9F80000400207D42868800716D5E0687F
:10193000012800D112E033E1E068B8B10120C8F815
:101940000000FFF7F9FD064605E000BFFFF7F4FDD4
:10195000801B0228C0D828688007F7D5286821692D
:1019600020F0F80040EAC10028600DE0C8F800A0AF
:10197000FFF7E2FD064604E0FFF7DEFD801B0228CC
:101980001FD828688007F7D42078000722D5864F13
:1019900087486169703771B101210160FFF7CCFDA3
:1019A000064604E0FFF7C8FD801B022809D8386806
:1019B0008007F7D50EE0C0F800A0FFF7BDFD064692
:1019C00005E082E0FFF7B8FD801B02287DD838686B
:1019D0008007F7D42078400768D5DFF8CCB100271E
:1019E0000BF13C0BDBF80000C0000BD4DBF800105F
:1019F00041F08051CBF80010DBF80000012700F027
:101A0000805000906B4E3068C00510D4306840F4B0
:101A100080703060FFF790FD009005E0FFF78CFDCF
:101A20000099401A022850D83068C005F6D55E4E9D
:101A3000A0686C3601280FD00528306810D020F03F
:101A400001003060306820F004003060A068B8B158
:101A5000FFF772FD00900FE0306840F00100F4E7FE
:101A600040F004003060F7E7FFF766FD0099411A87
:101A700041F28830814266D830688007F4D50EE0A4
:101A8000FFF75AFD009007E0FFF756FD0099411A55
:101A900041F28830814256D830688007F4D42FB1A3
:101AA000DBF8001021F08051CBF80010A069C8B31A
:101AB0003D49091D0968C1F3810102294AD0022864
:101AC000504607D0C8F8600000E03CE0FFF734FD66
:101AD00004463BE04746C8F86000FFF72DFD064688
:101AE00005E000BFFFF728FD801B02282BD82868DF
:101AF0008001F7D4D4E907010843A16A2E4A4908B6
:101B000002EB0141626A41EA8211084394F82C1009
:101B100040EA0161C9F8001001203866FFF70CFDAA
:101B2000044606E03EE000BFFFF706FD001B02286A
:101B300009D828688001F7D534E000BFFFF7FCFC26
:101B4000001B022802D90320BDE8F88F2868800115
:101B5000F4D427E00128F7D0D9F80000E26900F4B6
:101B6000800191421CD1226A00F03F01914217D1BD
:101B700047F6C071626A0140B1EB821F10D1A26AC0
:101B80004FF0FF3300F4403103EB5202B1EB024F50
:101B900006D194F82C1000F07060B0EB016F01D00A
:101BA0000120D1E70020CFE704380240000047427F
:101BB000800E4742007000400000FFFF10B5401E3D
:101BC000B0F1807F01D3012010BD4FF0E0246061AF
:101BD0000F21601701F0CCFB0020A06107202061DD
:101BE000002010BD7047704770B590F83C20012A66
:101BF00032D0012480F83C40022280F83D20036866
:101C00005A689D6822F070060A6832435A60134B86
:101C100002689A4214D0B2F1804F11D0104B9A4210
:101C20000ED0104B9A420BD00F4B9A4208D00F4B5C
:101C30009A4205D00E4B9A4202D00E4B9A4204D1E2
:101C4000496825F080031943916080F83D400021E8
:101C500080F83C10084670BD022070BD00000140B5
:101C60000004004000080040000C00400004014057
:101C7000004001400018004010B5040003D094F863
:101C80003D0010B107E0012010BD002084F83C00A9
:101C9000204600F01FF8022084F83D00211D206836
:101CA00000F09EFE012084F8460084F83E0084F88F
:101CB0003F0084F8400084F8410084F8420084F832
:101CC000430084F8440084F8450084F83D00002077
:101CD00010BD000008B500680B49884212D10B48BE
:101CE000016841F0020101600068002200F002007A
:101CF000009001211D20FFF78DFCBDE808401D204C
:101D0000FFF77ABC08BD00000004004040380240E4
:101D100090F83D10012901D001207047022180F880
:101D20003D100168CA6842F00102CA6000681149AA
:101D3000884214D0B0F1804F11D00F4988420ED0A4
:101D40000E4988420BD00E49884208D00D4988427E
:101D500005D00D49884202D00C49884204D18168DF
:101D600001F00701062903D0016841F0010101607B
:101D700000207047000001400004004000080040BF
:101D8000000C0040000401400040014000180040E9
:101D900070B5044690F83C000025012817D00126B4
:101DA00084F83C60022084F83D002068826822F0BC
:101DB000770222F47F4282600868502838D00DDC18
:101DC00020284FD005DC90B3102811D14AE0022022
:101DD00070BD302846D040280AD13BE060282FD083
:101DE00070280DD0B0F5805F03D0B0F5005F12D041
:101DF000012584F83D60002084F83C00284670BD31
:101E0000CB68D1E90121206800F04EFE206881688E
:101E100041F0770109E0CB68D1E90121206800F0A9
:101E200043FE2068816841F480418160E1E719E068
:101E3000CA684968206800F049FE5021206806E021
:101E4000CA684968206800F052FE6021206800F0EE
:101E500035FECEE7CA684968206800F037FE4021A9
:101E60002068F4E7226801461046F0E7704770B535
:101E70000446006801694FF00005C943890715D47D
:101E8000C168C943890711D4E91E01610120207787
:101E9000206880698007204602D0FFF7E7FF04E052
:101EA00000F098F8204600F096F825772068016940
:101EB000C943490717D4C168C943490713D46FF010
:101EC00004010161022020772068806910F4407FBE
:101ED000204602D0FFF7CAFF04E000F07BF820465E
:101EE00000F079F8257720680169C943090716D4FD
:101EF000C168C943090712D46FF0080101610420C9
:101F000020772068C0698007204602D0FFF7AEFF27
:101F100004E000F05FF8204600F05DF825772068C7
:101F20000169C943C90617D4C168C943C90613D496
:101F30006FF010010161082020772068C06910F45B
:101F4000407F204602D0FFF791FF04E000F042F806
:101F5000204600F040F8257720680169C943C90789
:101F600008D1C168C943C90704D1891E016120464F
:101F700000F032F820680169C943090609D4C16834
:101F8000C943090605D46FF0800101612046FFF7BF
:101F900029FE20680169C943490609D4C168C943BB
:101FA000490605D46FF040010161204600F046F873
:101FB00020680169C94389060BD4C168C9438906F1
:101FC00007D46FF0200101612046BDE87040FFF7A3
:101FD0000ABE70BD7047704710B5174C2068401C92
:101FE000072190FBF1F2206001FB120018B902F00A
:101FF000EFF903F005F92078C00701D103F0E0FC08
:102000002068032190FBF1F201FB120018B903F0E4
:10201000F3FB03F0EBF920684FF4C87190FBF1F289
:1020200001FB120008B900F07DFE2068B0F57A7F50
:1020300001DB0120206010BD98000020704770B5C2
:10204000040004D094F83D00002510B106E0012002
:1020500070BD84F83C50204600F022F8242084F81B
:102060003D002068C16821F40051C160204600F0A5
:1020700097FD2068016921F4904101612068416960
:1020800021F02A0141612068C16841F40051C1601A
:102090002564202084F83D0084F83E00002070BDB7
:1020A0002DE9F04F87B0044614216846FEF7DAF9AF
:1020B0009648DFF8548214380221D4F800C0934BBC
:1020C000032200250615CF034FF0070BC44570D13E
:1020D000D3F800C04CF0100CC3F800C01B6803F02C
:1020E00010030593036843F002030360036803F0E1
:1020F00002030593036843F0010303600068894607
:1021000000F0010005908020CDE90009CDE90252E0
:102110009246D8466946CDF810B07D48FFF714F9CD
:102120007010CDE90009CDE9025A6946CDF810805A
:102130007848FFF709F9DFF8E481774940464FF026
:102140000069C8F80010C0E90195C0E90356C8F855
:102150001450C8F81850C8E90757B246C8F82450B8
:10216000FFF788F808B1FEF71CFB6C4E6A48C4F80C
:10217000388060367830C8F83840E6E802094020F8
:10218000A6E82104654846F814596030B561C6E9EF
:1021900007577562FFF76EF808B1FEF702FB66633A
:1021A000002201212520B463FFF734FA252047E0FF
:1021B000FFE7DFF86C81C44547D1544B1B1FD3F8B0
:1021C00000C04CF4802CC3F800C01B6803F48023CB
:1021D0000593036843F004030360006800F0040003
:1021E00005904FF440608DE82300CDE9032B69464C
:1021F0004C48FFF7A9F8DFF824814B4908F1C008E3
:102200004046C8F800104FF00061C0E90115C0E970
:102210000356C8F81450C8F81850C8E90757C8F84A
:102220002450FFF727F808B1FEF7BBFAC4F838804E
:10223000002211462720C8F83840FFF7EBF9272085
:10224000FFF7DAF907B0BDE8F08FDFF8E080C445AA
:10225000F8D1D3F800C04CF0200CC3F800C01B68C4
:1022600003F020030593036843F040030360006814
:1022700000F0400005904FF484408DE823000820D2
:10228000CDE9032069462A48FFF75EF82249DFF8C6
:10229000A480183940464FF0206AC8F80010C0E901
:1022A00001A5C0E90356C8F81450C8F81850C8E989
:1022B0000757B946C8F82450FEF7DCFF08B1FEF70F
:1022C00070FA1C4F1448C4F8388060376030C8F882
:1022D0003840E7E8020A402061C7164847F8145919
:1022E0006030BD61C7E907597D62FEF7C3FF08B1E1
:1022F000FEF757FA6763002211464720BC63FFF7D9
:1023000089F947209CE70000001001404438024052
:10231000000402400000024040640240E802002045
:1023200000480040000802402860024000140140BC
:1023300000180240080400202DE9F843044690F8F4
:102340003D001F4616460D4620284CD1C5B1BEB1F2
:1023500094F83C00012846D0012084F83C004FF05E
:102360000008C4F84080212084F83D00FFF7E4F81D
:10237000A6848146E684A068B0F5805F03D004E0BF
:102380000120BDE8F883206928B12E465FF00005E2
:1023900084F83C800EE00026FAE78021204600F019
:1023A00085FCA0B9AEB116F8010B21684860E08C3D
:1023B000401EE084E08C4B464FF00002009700285E
:1023C000EBD14FF04001204600F070FC30B103200B
:1023D000D7E735F8020BC0F30800E6E7202084F8C1
:1023E0003D000020CDE70220CBE7FEE7104810B506
:1023F0000E4901600321416000214FF48022816079
:10240000C0E903124FF4E0024261017601224276F4
:102410008276C17601774177FEF735FC002803D03C
:10242000BDE81040FEF7BDB910BD000000640040DB
:1024300084010020104810B50E490160062141605A
:1024400000214FF480228160C0E903124FF4E002C2
:1024500042610176012242768276C1760177417728
:10246000FEF711FC002803D0BDE81040FEF799B933
:1024700010BD000000680040AC0100201D4808B5F8
:10248000016841F400110160016801F4001100913C
:10249000016841F4800101600068002200F48000BE
:1024A000009011460C20FFF7B5F80C20FFF7A4F8B8
:1024B000002211463920FFF7ADF83920FFF79CF8CC
:1024C000002211463A20FFF7A5F83A20FFF794F8CA
:1024D000002211464520FFF79DF84520FFF78CF8B4
:1024E000002211464620FFF795F8BDE80840462037
:1024F000FFF782B830380240194808B5016841F04A
:1025000002010160016801F002010091016841F0DF
:1025100040010160016801F040010091016841F053
:1025200001010160016801F001010091016841F0C1
:1025300008010160016801F008010091016841F0A3
:1025400004010160016801F004010091016841F09B
:1025500080010160006800F08000009008BD00006C
:102560003038024010B586B000241748009401941A
:102570000294039404941349059401605321C0E923
:10258000011440F2E731C0E903148461FFF774FBE2
:1025900008B1FEF706F94FF48050009069460A48EA
:1025A000FFF7F6FB08B1FEF7FCF8049404A906480F
:1025B0000594FFF719FB002801D0FEF7F2F806B0EA
:1025C00010BD000000040040D40100200C4810B5EC
:1025D0000A4901604FF4E1314160002181600C2221
:1025E000C160C0E904128161C161FFF728FD0028C4
:1025F00003D0BDE81040FEF7D4B810BD0010014074
:102600001C0200200C4810B50A4901600B494160CA
:10261000002181600422C160C0E904128161C161AE
:10262000FFF70DFD002803D0BDE81040FEF7B9B854
:1026300010BD00000048004060020020A08601009C
:102640000C4810B50A4901604FF4E13141600021A6
:1026500081600C22C160C0E904128161C161FFF791
:10266000EEFC002803D0BDE81040FEF79AB810BD7C
:1026700000140140A4020020FEE7FEE700282BD052
:10268000002929D091ED000A80ED000A91ED010AA0
:1026900080ED010A91ED020A80ED020A91ED030A34
:1026A00080ED030A91ED040A80ED040A9FED0B0A08
:1026B00080ED0E0A80ED0D0A80ED0C0A80ED080A0F
:1026C00080ED0B0A80ED0A0A80ED090A80ED110AFF
:1026D00080ED100A80ED0F0A704700000000000036
:1026E0009FED0A0A80ED030A80ED040A80ED000ADE
:1026F00080ED010A80ED020A80ED050A80ED060AF0
:1027000080ED070A80ED080A704700000000000015
:102710007047002801DC404200B2704770B5194C88
:10272000B4F90000FFF7F5FF40F29465A84217DC0A
:10273000B4F90200FFF7EDFFA84211DCB4F9040080
:10274000FFF7E7FFA8420BDCB4F90600FFF7E1FF53
:10275000A84205DCA07A18B1E07A08B1002070BD6B
:10276000002020806080A080E08020810221A17272
:10277000E172A081E0812082A074E074A082012037
:1027800070BD00009E00002030B5144B1C686569C8
:1027900045F0400565611B68DC6844F01004DC60AE
:1027A0000F4B1C68256825F0010525601C6825680D
:1027B000ED07F7D11D680B4CAC601C68E060186831
:1027C0000161186842601868016841F48021016065
:1027D0001868016841F00101016030BD600200200D
:1027E000A80300200448004038B51B480168CA68A7
:1027F00022F40052CA60194A11680B6823F00103E1
:102800000B601368242159600068016841680091D9
:10281000134C13684FF40011A34202D9104B4C3BE8
:1028200004E0104CA34203D90D4B503B196008E063
:102830000C4D0C4C603DB83CAB4201D9E16000E06E
:10284000A160C16841F40051C1601068016841F0A5
:102850000101016038BD000060020020A8030020D3
:1028600058640240B860024030B5284801684B699E
:1028700043F040034B6101684B6943F080034B61B7
:102880000068C16841F01001C160214801680B680F
:1028900023F001030B6001680B68DB07F7D11D4DC6
:1028A0004FF40013A94202D91A4C4C3C04E01A4CD4
:1028B000A14203D9174C503C236008E0164D164C3A
:1028C000603DB83CA94201D9E36000E0A360134B2E
:1028D0008B6004681249E1600468216101684A6004
:1028E00001680A6842F480220A600068016841F0C9
:1028F000010101600B4801680A6822F001020A60C8
:1029000001680A68D207F7D18B6030BDA4020020AD
:102910000804002058640240B860024004140140DA
:10292000CC0E0020680400207047FEF70BBE0000AC
:1029300030B593B030216846FDF794FD14210CA802
:10294000FDF790FD1D480025016841F080510160B0
:10295000006800F0805011901948016841F48041EE
:1029600001600068022400F4804011900120009072
:10297000000401908001CDE9064006200890A820BF
:10298000CDE9090404200B906846FEF761FF08B109
:1029900072B6FEE70CA90F2081E831004FF4A05079
:1029A0000F904FF48050109005210CA8FEF764FEA4
:1029B000002801D072B6FEE713B030BD40380240A7
:1029C000007000400248016841F4700101607047E6
:1029D00088ED00E00148FFF74ABA0000D40100206A
:1029E000F0B50268254C264D264E274F274B4FF059
:1029F000804CA04209D0604507D0A84205D0B04223
:102A000003D0B84201D0984204D122F0700E4A6837
:102A100042EA0E02A0421BD0604519D0A84217D04E
:102A2000B04215D0B84213D0984211D0184DA842E8
:102A30000ED0184DA8420BD0174DA84208D0174D04
:102A4000A84205D0164DA84202D0164DA84203D187
:102A500022F44075CA682A434D6922F080022A4355
:102A600002608A68C2620A688262A04201D098420B
:102A700001D10969016301214161F0BD00000140FC
:102A80000004004000080040000C00400004014029
:102A9000004001400044014000480140001800404F
:102AA000001C00400020004010B5846842EA032268
:102AB00024F47F440A432243826010BD826822F0DE
:102AC00070020A4342F007018160704710B5036A43
:102AD000046A24F001040462846924F0F00444EAE6
:102AE000021423F00A020A438461026210BD10B589
:102AF000036A23F0100303628369046A23F47043BA
:102B000043EA023224F0A00343EA01118261016228
:102B100010BD000070B50D4600EE105A2DED028B71
:102B20000446D0ED038AB8EE408AC0ED068A164608
:102B300080ED038A406A304403F0C3F99FED161B11
:102B400053EC112B03F024FA02F04EFF6662606032
:102B5000A06A10B90120C4E90A0538EE680AE069E4
:102B600010EE101AB1F18B4F01DD401E05E010EEA2
:102B7000101A11F16A5F01D9401CE061400300EEB8
:102B8000100AB8EEC00A30EE080ABDEEC00A84EDA5
:102B9000080ABDEC028B70BD000000000000E03FA1
:102BA00070B5044600680169E26821F440511143A0
:102BB00001612169A068E269084361691143084322
:102BC0002168CA6849F20C639A430243CA602068CC
:102BD0004169A26921F44071114341613149206882
:102BE000884202D03049884202D1FEF7EFFD01E071
:102BF000FEF7DCFDE2690023192164253226B2F5D7
:102C0000004F626828D0A0FB0101930F9200FDF7EE
:102C10004BFB0146B0FBF5F06FF01802504301EB9F
:102C2000800006EB0010B0FBF5F000F0F002B1FB05
:102C3000F5F002EB0012B1FBF5F06FF0180358430A
:102C400001EB800006EB0010B0FBF5F000F00F0088
:102C500021681044886070BDA0FB010192185B419F
:102C6000FDF722FB0146B0FBF5F00201B1FBF5F0E8
:102C70006FF01803584301EB800006EBC000B0FB77
:102C8000F5F000F0F80002EB4002B1FBF5F058431C
:102C900001EB800006EBC000B0FBF5F000F0070090
:102CA000D6E7000000100140001401402DE9F0417A
:102CB000984617460E460446069D27E0681C25D018
:102CC0002DB1FEF739FCA0EB0800A8421ED9206800
:102CD0000C3050E8001F21F4D07140E80012002AA7
:102CE000F5D12068143050E8001F21F0010140E8C0
:102CF0000012002AF5D1202084F83D0084F83E001F
:102D0000002084F83C000320BDE8F08120680068C2
:102D100036EA000004D00020B842CFD00020F3E70C
:102D20000120F9E72DE9F04F85B002254FF48770B7
:102D30004FF420710295CDE9031003271420CDE94B
:102D40000007984801231A4690ED000A194696A0FC
:102D500000F040F94FF407704FF4A0610295CDE9FF
:102D600003101820CDE90007904801231A4690ED82
:102D7000000A19468EA000F02DF94FF4347040F28D
:102D80006451CDE9031001241C208DE831008948ED
:102D90002346224690ED000A214687A0B8EEC00ADD
:102DA00000F018F94FF4AA7640F2F23040F28E317A
:102DB000CDE90260CDE9004101231A460496194687
:102DC0007EA000F085F94FF4B97840F2E23140F28C
:102DD0009E32CDE90281CDE900420123CDF8108079
:102DE0001A46194676A000F073F94FF4C87B4FF4E9
:102DF0006671CDE9011B4FF47A720094CDE9032B83
:102E000001231A4619466FA000F062F94FF4D770FB
:102E100040F2A23240F2DE31CDE90042CDE90201BA
:102E2000012304901A46194667A000F051F94FF4A7
:102E3000E67940F2DB3140F2A532CDE90291CDE9ED
:102E400000420123CDF810901A4619465FA000F009
:102E50003FF94FF4707A40F21221CDE901A10094BC
:102E60000123CDE903A61A46194659A000F030F90E
:102E70004FF487704FF420710295CDE903101420B0
:102E8000CDE90007474801231A4690ED000A0221C8
:102E900045A000F09FF84FF487704FF4A0610295B1
:102EA000CDE903101420CDE90007404801231A465C
:102EB00090ED000A02213EA000F08CF84FF434702F
:102EC00040F26451CDE903101C208DE831003948EF
:102ED00001231A4690ED000A022137A0B8EEC00A7D
:102EE00000F078F840F2F23040F28E31CDE9026025
:102EF000CDE9004101231A46049602212FA000F0DB
:102F0000E7F840F2E23140F29E32CDE90281CDE9AC
:102F100000420123CDF810801A46022128A000F0BB
:102F2000D7F84FF46671CDE9011B4FF47A72009423
:102F3000CDE9032B01231A46022122A000F0C8F894
:102F40004FF4D77040F2A23240F2DE31CDE90042B8
:102F5000CDE90201012304901A4602211AA000F0D3
:102F6000B7F840F2DB3140F2A532CDE90291CDE96C
:102F700000420123CDF810901A46022113A000F060
:102F8000A7F840F21221CDE901A10094CDE903A6F2
:102F900001231A4602210EA000F09AF805B0BDE800
:102FA000F08F0000640100203039300074010020EF
:102FB00030393100700100203039320030383000B3
:102FC0003038310030383200303833003038350096
:102FD000303834002DE9F05F3A4C88462DED028BF5
:102FE0000546DDE90E9A40F20110DDF830B03649B1
:102FF0002080B0EE408A1E461746881E01F084FCF1
:1030000031489FED320A001F152341886180808876
:10301000A0802878A0716878E071A878207214F8F0
:10302000090F28EE000A68F3020020F0380028306B
:1030300004F80809BDEEC00A2089224A67F3891006
:103040002081607A66F385006072A18969F30901C5
:10305000A181B4F809106BF38E11A4F809106189ED
:103060000D9860F3CF116181B4F80D106AF38C01F3
:10307000A4F80D10E189109860F34F11E18110EE72
:10308000100A218A60F3090110EE100A2182810AD8
:10309000B4F8110061F38C00A4F8110010EE100ACE
:1030A0004FF6FF7101EA6051608A61F34F10608250
:1030B00040F20131BDEC028BA520BDE8F05F01F0CC
:1030C000C1BF0000740E00206001002000007A449F
:1030D0002DE9F05F284CDDE90C9A8846054640F260
:1030E0000110DDF828B0254920801E461746881EAD
:1030F00001F00AFC21482246001F15234188618007
:103100008088A0802878A0716878E071A878207203
:10311000607A68F3020020F038006072B4F80900A9
:1031200067F38910A4F80900A07A66F38500A072FD
:10313000B4F80D106BF30901A4F80D10E1890B9898
:1031400060F38C01E181B4F80F1069F34F11A4F81A
:103150000F10618A6AF38C016182B4F813100E9823
:1031600060F34F11A4F81310BDE8F05F40F2013195
:10317000A52001F067BF0000740E00206001002050
:1031800038B52A4800680168890603D50168406897
:10319000009038BD26490968C906FAD5016840681B
:1031A000244A0090106801684FF024030C03224960
:1031B000046824F00104046016D414686068C0F147
:1031C000240080B20880636011680B6843F4002318
:1031D0000B6011680A6842F001020A601228D8D117
:1031E00015491648891C16E010684468C4F1240487
:1031F000A4B20C8043601248816A21F400218162EC
:103200001068016841F001010160122CC1D10A4926
:103210000A48891C243002F09DF8FFF77FFA012844
:10322000B7D1BDE838402420FFF7DEBA60020020A5
:1032300000480040A80300209C000020140B002040
:10324000006002401F4818B40068C00637D51E4809
:1032500001680A6849680091816B09680A681B4B1C
:1032600012030A684FF4007422F001020A60816BB5
:1032700009684A68C2F5007292B21A804C60816B8C
:1032800009680B680CD443F400230B60806B006862
:10329000016841F0010101600D4901F580600BE01A
:1032A00023F400230B60806B0068016841F001018A
:1032B0000160084901F5007018BC01F08ABA18BC19
:1032C0007047000000140140A4020020800100208B
:1032D000CC0E0020CC100020FEE700000021C160D1
:1032E000016101604160816041618161C161016290
:1032F0009FED030A416280ED0A0A80ED0B0A7047D8
:103300000000000010B50C490C48FFF7B7F90B4955
:10331000143901F15C00FFF7B1F907490748283972
:10332000D830FFF7ABF9044904481439BDE8104020
:103330009030FFF7A3B9000048010020200D0020C5
:1033400003B401984100009850EAC12018BF04203E
:103350004A0D18BF40F0010040F2FF72B2EB515F1E
:1033600008BF40F00200012808BF052002B07047E6
:103370000907090E002804DB00F1E02080F80014A2
:10338000704700F00F0000F1E02080F8141D704736
:1033900010B52F499FED2C1B2DED020B84B0059825
:1033A00020F000408842D8BF9DED040B2DDD294957
:1033B000884209D1049840B94FF00100FDF781F827
:1033C00000F0A2FC06B010BD05DB9DED040B00F083
:1033D0008FFC06B010BD68469DED040B00F0A0F810
:1033E00010F0030004BF9DED021B9DED000B0CD0FF
:1033F00001280ED09DED021B9DED000B022817D079
:10340000012000F0DDFB06B010BD00F0A5FA06B00B
:1034100010BD9DED021B9DED000B012000F0D0FBC7
:1034200051EC100B02F0D4FA06B041EC100B10BDB9
:1034300000F092FA51EC100B02F0CAFA06B041EC1F
:10344000100B10BD00000000000000000000000094
:10345000FB21E93F0000F07F10B52F499FED2C1BA9
:103460002DED020B84B0059820F000408842DCBFAF
:1034700000209DED040B32DD2849884209D10498D3
:1034800040B94FF00100FDF71CF800F03DFC06B01C
:1034900010BD05DB9DED040B00F02AFC06B010BD4D
:1034A00068469DED040B00F03BF810F0030011D0CE
:1034B000012818D09DED021B9DED000B02281AD0AB
:1034C00000F04AFA51EC100B02F082FA06B041EC1F
:1034D000100B10BD9DED021B9DED000B012000F0B7
:1034E0006FFB06B010BD9DED021B9DED000B00F0C3
:1034F00033FA06B010BD012000F062FB51EC100B56
:1035000002F066FA06B041EC100B10BD000000009E
:103510000000000000000000FB21E93F0000F07FF8
:103520002DE9F14F04462DED020B2DED088B8AB0ED
:103530009FEDE70B80ED020B139EE74826F0004558
:1035400085420ADC9DED120B002084ED000B0AB0D1
:10355000BDEC088B03B0BDE8F08FE0489FEDE0AB19
:103560009FEDE1BBA84247DDE14F9FEDE39B9FED5F
:10357000E48B9DED120B53EC1A2B51EC100B002E2B
:103580001CDD02F045FE41EC100BBD4208D053ECAF
:103590001B2B51EC100B02F03BFEC4E900010BE0C9
:1035A00053EC192B51EC100B02F032FE53EC182B9C
:1035B00002F02EFEC4E900010120C8E702F046FA3D
:1035C00041EC100BBD4208D053EC1B2B51EC100BFF
:1035D00002F03CFAC4E900010BE053EC192B51EC6A
:1035E000100B02F033FA53EC182B02F02FFAC4E957
:1035F00000014FF0FF30AAE7C348A84279DB9DEDF8
:10360000120B51EC100B01F0B7F841EC180B9FEDC9
:10361000C00B53EC102B02F0BBFC9FEDBF1B53EC17
:10362000112B02F013FA02F01DFC074602F049FCD0
:1036300041EC190B53EC1A2B02F0AAFC53EC182B9B
:1036400002F0DAFD41EC180B53EC1B2B51EC190B7B
:1036500002F09EFCDFF8C8A241EC100B4FEA1558AF
:103660000125FA4453EC102B51EC180B02F0D0FD5D
:10367000032DC4E900013DD0C1F30A5005EB45110B
:10368000A8EB00001139814234DA0AEB051BB0EED9
:1036900048AA9BED000BF0EE68AA53EC102B51ECFE
:1036A000190B02F075FC41EC1B0B51EC1A0B53EC9F
:1036B0001B2B02F0ADFD41EC180B51EC1A0B53EC37
:1036C000182B02F0A5FD53EC1B2B02F0A1FD9BED86
:1036D000020B41EC1A0B53EC102B51EC190B02F0BE
:1036E00057FC53EC1A2B02F093FD41EC100B6D1CB0
:1036F000B8E70EE0002EA8BF3846BFF628AF94ED1D
:10370000000B51EC100B02F063F9C4E900017842A0
:103710001DE7C6F3130040F4801EC6F30A50A0F262
:10372000F530471100F01F05C5F12000DDF848B065
:1037300008900020069007900520EC467949002D5E
:1037400007EB0002794408BF51F8221009D051F864
:10375000223001EB8201AB404A68089922FA01F15C
:103760001943A1FB0E26A1FB0B131A449A4234BF46
:103770000123002303EB06080CEB8003D3E901A629
:103780000E448E4234BF0121002192448A4411B17B
:10379000924502D903E0924501D2012100E00021C7
:1037A000C3E901A641444CF82010011EA0F101001C
:1037B000C4DC029800F10050850F0298DDE9036730
:1037C0008000DDF8148002F07CFB41EC1A0B3046DF
:1037D00002F08EFB9FED541B53EC112B02F0D8FB33
:1037E00041EC1B0B384602F083FB9FED511B53EC61
:1037F000112B02F0CDFB41EC180B404602F078FB98
:103800009FED4D1B53EC112B02F0C2FB41EC190B49
:1038100051EC180B53EC192B02F018F953EC1B2B3D
:1038200002F014F953EC1A2B02F010F9CDE908015B
:10383000002008909DED080B53EC1A2B51EC100B57
:1038400002F0E6FC53EC1B2B02F0E2FC53EC182BCD
:1038500002F0DEFC53EC192B02F0CEFC9FED381B7E
:1038600053EC112B02F094FB9FED370B41EC180B3E
:1038700053EC102B9DED080B51EC100B02F088FB64
:1038800053EC182B02F0E2F89FED310B41EC180BD2
:1038900053EC102B9DED080B51EC100B02F078FB54
:1038A00053EC182B02F0D2F841EC100B139810F0E7
:1038B000004F06D06D4251EC100B02F089F841EC3C
:1038C000100B284684ED000B41E6000000000000CC
:1038D0000000000000000000FB21E93F7CD902400D
:1038E00000004054FB21F93F3163621A61B4D03DBE
:1038F000FB21F93F000000000000601A61B4D03DD8
:103900007370032E8A19A33BFB213941000000008C
:1039100083C8C96D305FE43F000000000000E03F55
:10392000CA31000018310000000000000000103E05
:10393000000000000000103C000000000000103AF1
:10394000182D4454FB21F93D3326A611460B113C9A
:1039500000000054FB21F93D10B52DED040B2DEDB9
:10396000088B82B0B0EE419AF0EE619A0B9820F08D
:1039700000449FED4BABB4F1795F11DA9DED0A0B7A
:1039800051EC100B02F06EFA002801BFB0EE4A0AAB
:10399000F0EE6A0A02B0BDEC088B04BF04B010BDA3
:1039A0009DED0A0B53EC102B51EC100B02F0F0FACA
:1039B00041EC180B3C480621B0EE480AF0EE680ACC
:1039C000784400F081F853EC182B51EC100B02F006
:1039D000DFFA9DED0A0B41EC1B0B53EC192B51EC5C
:1039E000100B02F0D5FA41EC190B53EC1B2B51ECE8
:1039F000180B02F0CDFA53EC192B02F009FC9FEDE5
:103A00002C0B41EC190B53EC102B51EC180B02F062
:103A1000BFFA41EC100B2848844210DA53EC192B02
:103A200051EC100B02F0F4FB53EC1A2B02F0E4FB08
:103A300041EC100B02B0BDEC088B04B010BD1F4868
:103A4000A042BCBF9FED1E1B8DED001B06DBA4F545
:103A500000100190002000909DED001B51EC100B18
:103A600053EC112B02F0D4FB9DED000B41EC180B35
:103A700053EC102B51EC1A0B02F0CAFB41EC1A0B61
:103A800053EC192B51EC180B02F0C2FB53EC1A2B20
:103A900002F0B2FB41EC100BCCE70000000000008C
:103AA000000000000000F03F3C2E0000000000007D
:103AB000000000000000E03F3333D33F0000E93F47
:103AC000000000000000D23F70B504462DED028BCF
:103AD0004D1E00EBC500B0EE408AF0EE608A90ED1E
:103AE000000B35F0060017D053EC182B51EC100BDF
:103AF00002F04EFA41EC100B6D1E04EBC50090ED88
:103B0000001B51EC100B53EC112B01F09FFF41EC0B
:103B1000100B35F00600E7D1022D36D0042D1CD055
:103B2000062D1CBFBDEC028B70BD53EC182B51EC65
:103B3000100B02F02DFA94ED0A1B53EC112B01F03F
:103B400085FF53EC182B02F023FA94ED081B53EC7D
:103B5000112B01F07BFF41EC100B53EC182B51ECB7
:103B6000100B02F015FA94ED061B53EC112B01F02B
:103B70006DFF53EC182B02F00BFA94ED040B53EC91
:103B8000102B01F063FF41EC100B53EC182B51ECA0
:103B9000100B02F0FDF994ED021B53EC112B01F018
:103BA00055FF53EC182B02F0F3F994ED001B53EC86
:103BB000112B01F04BFFBDEC028B41EC100B70BDE3
:103BC00031B504462DED040B2DED0A8BB0EE41BA54
:103BD000F0EE61BA0B989DED0A0B20F00040B0F1B9
:103BE000795F0DDA51EC100BFFF7AAFB042808BF30
:103BF00000F09AF89DED0A0BBDEC0A8B05B030BDC4
:103C000053EC102B51EC100B02F0C2F941EC180BE5
:103C10009DED0A0B53EC182B51EC100B02F0B8F988
:103C200041EC190B2C48B0EE480AF0EE680A052169
:103C30007844FFF749FF9FED2ACBB0EE40AAF0EEA3
:103C400060AA9CB353EC1C2B51EC190B02F0A0F9A9
:103C500041EC1C0B53EC1A2B51EC190B02F098F9A8
:103C60009FED210B41EC190B53EC102B51EC1B0B6E
:103C700002F08EF953EC192B02F0CAFA53EC182B10
:103C800002F086F953EC1B2B02F0C2FA53EC1C2B0A
:103C900002F0BEFA9DED0A1B53EC112B02F0ACFAB8
:103CA000BDEC0A8B05B041EC100B30BDFFE753ECC7
:103CB0001A2B51EC180B02F06BF953EC1C2B01F092
:103CC000C5FE53EC192B02F063F99DED0A1B53EC72
:103CD000112B01F0BBFEE3E7C42C00000000000044
:103CE000495555555555C5BF000000000000E03F3F
:103CF00010B553EC102B51EC100B01F0A7FE41EC6A
:103D0000100B10BD000000009FED050B10B553EC2B
:103D1000102B51EC100B01F04DFF41EC100B10BDBE
:103D200000000000000000009FED050B10B553ECF3
:103D3000102B51EC100B02F02BF941EC100B10BDC5
:103D4000000000000000001010B53D4800F026FF04
:103D50003C4800F023FF3C4800F020FF3B4800F0C7
:103D60001DFF3B4800F01AFF35489FED3A0A3C38EA
:103D7000DFED390A80ED250AC0ED260AC0ED270ADD
:103D8000B7EE000A9FED351A80ED280A80ED291A5A
:103D900080ED2A1AF1EE001AC0ED431A80ED441AA4
:103DA00080ED451A274828493C38284AB2EE001AC7
:103DB0003C39274B80ED431A3C3A81ED431A3C3B9A
:103DC00082ED431A83ED431A9FED251A80ED441AC4
:103DD00081ED441A82ED441A83ED441A80ED450AC0
:103DE00081ED450A82ED450A83ED450A1E489FEDA7
:103DF0001D0A80ED0A0AB6EE080A80ED0B0AC0ED36
:103E00000C0A1B489FED190A80ED0C0AB0EE000A5F
:103E100080ED0D0AC0ED0E0A01F0AEFC01F07CFA57
:103E20001148FEF75DFC01F08DFA00F09BF9114896
:103E3000FDF76EFF00F030FEBDE81040FFF762BAFC
:103E4000040A0020A4050020BC060020D40700209E
:103E5000EC080020CDCC4C3D00000000CDCCCC3D8A
:103E60003333B33ECDCCCC3FE00A00209A99914049
:103E700020050020D401002030B590ED040AD0EDDB
:103E8000030A6E4A30EE600A80ED000A1278012AB9
:103E90000BD0022A40D110EE102A694BDFED690ADF
:103EA0009A423ADD30EE600A3EE0D1ED000A664B00
:103EB00060EE800AC0ED050A90ED011AD1ED021AFC
:103EC00030EE411A21EE211ABDEEC11A11EE101A80
:103ED00009B2418380ED010A00EE101AB8EEC00A63
:103EE00030EE800A10EE102A9A4202DDB3EE0E0A7E
:103EF00010E000EE101A554BB8EEC00A30EE800A02
:103F000010EE102A9A4202D9BBEE0E0A02E000EE31
:103F1000101A8EE080ED070A30BD10EE102A4C4BCF
:103F20009A4203D930EE200A80ED000A10EE102AE2
:103F3000484B9A420ADC10EE102A12F17D5F05D838
:103F4000D0ED020A70EE800AC0ED020A8268B2F17A
:103F50007E5F02DDF7EE000A04E012F1814F03D923
:103F6000FFEE000AC0ED020AD1ED000A4FF08045D5
:103F700060EE800AC0ED050A91ED011AD0ED021A3B
:103F800010EE903AF0EE000A21EE211AAB42BDEE9F
:103F9000C11A11EE102A12B2028390ED011AD1ED6E
:103FA000021A30EE411A21EE211ABDEEC11A11EEAD
:103FB000101A09B2418380ED010A01DDC0ED050A46
:103FC00043694FF04044B8EE001AA34201D980ED96
:103FD000051A01EE901A90ED050AF8EEE11A30EE9E
:103FE000212A01EE902AF8EEE11A72EE211A11EE62
:103FF000903AAB4202DDC0ED070A30BD00EE901AE8
:10400000F8EEE00A70EE201A00EE902AF8EEE00AD0
:1040100071EEA00A10EE903AA34202D980ED071A81
:1040200030BD00EE901AF8EEE00A70EE200A00EEC5
:10403000102AB8EEC00A30EE800A6BE714000020A8
:10404000000034430000B44300001643000016C3D0
:10405000000034C30000C040F0B390ED101A80EDB2
:10406000111AD0ED0F1AC0ED101A80ED050A30EECE
:10407000600AC0ED060A80ED0F0AD0ED000A20EEBE
:10408000801A80ED091AD0ED0A0A90ED012A42EE5D
:10409000000A30EE610AC0ED0A0A90ED0D2A80EDAB
:1040A0000E2A90ED0C2A80ED0D2A80ED0C0AD0ED41
:1040B000021A61EE801AC0ED0B1A90ED040AF4EEBC
:1040C000C00AF1EE10FA0EDCB1EE400AF4EEC00ABE
:1040D000F1EE10FA07D300E002E090ED0A0A04E0E6
:1040E0009FED0E0A704780ED0A0A31EE000A30EEAD
:1040F000210A80ED080AD0ED030AB4EEE00AF1EEE1
:1041000010FA06DCF1EE600AB4EEE00AF1EE10FA05
:1041100001D2C0ED080A90ED080A704700000000C7
:1041200030B50C4605000CD0022C0AD90548A11E5A
:104130000288284600F0C4FB291901F8020D000A84
:10414000487030BD8201002030B50C46050008D013
:10415000022C06D9FF22611E00F0C8FB291901F8C4
:10416000010C30BD10B58AB00020012100900190F3
:1041700002900390CDE9051004900E20089107915C
:10418000099069460D48FCF785FB0F2005906946AC
:104190000B48FCF77FFB04460848FCF767FF08481C
:1041A000FCF764FF02210548FCF7FDFA02210448F0
:1041B000FCF7F9FA0AB0204610BD00008401002087
:1041C000AC01002090ED060AD0ED050A30EE600A41
:1041D00080ED000AD0ED040AB1EE601AB4EEC10A17
:1041E000F1EE10FA0ADDB4EEE00AF1EE10FA05D2B3
:1041F000D0ED020A70EE800AC0ED020A90ED021ABC
:10420000D0ED030AB4EEE01AF1EE10FA01DDC0EDD4
:10421000020A90ED021AF1EE600AB4EEE01AF1EE35
:1042200010FA01D2C0ED020AD0ED0C0A164A20EEB7
:10423000801A80ED071AD0ED0D0AD0ED021A60EE5B
:10424000A10AC0ED080AD0ED011A90ED0E2A70EE19
:10425000611A61EE821AC0ED091A80ED010A31EE91
:10426000210A30EE200A10EE101A914202DD9FED75
:10427000070A06E010EE101A054A914201D99FED97
:10428000050A80ED0A0A704700007A4400007A446B
:1042900000007AC400007AC410B58AB040F20B2343
:1042A00000930023082401930293CDE903348DF891
:1042B0001430030A8DF818308DF81900080A8DF8AB
:1042C0001A00100A8DF81C008DF81B108DF81D20A7
:1042D00008AB06AA69460248FCF777FA0AB010BD97
:1042E000AC01002000B589B0002140F2FF1201921C
:1042F000009108220891CDE9041203918DF8201055
:104300008DF8181007918DF82110010A8DF82210F0
:104310008DF823006B4607AA01A90348FCF755FA5C
:10432000009809B0C0B200BD8401002000B589B07A
:10433000002140F2FF22019200910822CDE90412EF
:1043400008910391020A8DF820208DF821008DF844
:1043500022108DF8181007918DF823106B4607AACC
:1043600001A90348FCF731FA009809B0C0B200BDBA
:10437000840100201049012008621048B0F8F010B4
:104380000D480A0A7030027041700D49B1F8F01002
:104390000A0A8270C1700B49B1F8F0100A0A027162
:1043A00041710949B1F8F0100A0A8271C1710146E0
:1043B0000648FCF76DB900002000002068050020C9
:1043C0008006002098070020B0080020840100200B
:1043D00010B500F021F800F021FC0A4C01202070FB
:1043E000094800F0FBFB094800F0F8FB084800F022
:1043F000F5FB084800F0F2FB00202070BDE81040FB
:10440000FFF7B8BF14000020A4050020BC06002060
:10441000D4070020EC0800202DE9F0413A4D3B4C38
:10442000B5F9000004F1340100EE100AB8EEC00A3C
:1044300084ED140AB5F9020000EE900AF8EEE00AE5
:10444000C4ED150AB5F9040001EE100A081FB8EE14
:10445000C11A84ED161A84ED0C0AC4ED0D0AD4EDD0
:104460000F0A94ED0E0A01F0EFF8207838B194EDC0
:104470000C0A84ED140A94ED0D0A84ED150AA8794E
:10448000012829D0032802D002281CD024E01F498B
:104490005431081F00F0E8F81E4E9FED1D0A1E4F14
:1044A00086ED140A96ED050A022086ED130A38708F
:1044B00006F13C0000F092FB0020387096ED170AE0
:1044C000B1EE400A06E011495431081F00F0CCF863
:1044D000B7EE080A84ED160AB5F9000000EE100ADE
:1044E000B8EEC00A84ED0E0AB5F9020000EE100A1B
:1044F000B8EEC00A84ED0F0A503494EC030ABDE80C
:10450000F04100F043B800005C05002020000020CE
:104510000000C842C80900201400002000EE900AE4
:1045200010B5F8EE600A134C2046C4ED040A84ED81
:10453000030A00F0C5FCD4ED080A9FED0F1A80EEC7
:10454000810A10EE100A01F04DFF9FED0C1B53EC99
:10455000112B01F07BFA01F047FA01F043FF9FEDC8
:10456000091B53EC112B01F013FD01F03DFA00EE95
:10457000100A10BDE00A002000007A441F85EB51AC
:10458000B81EF13F666666666666E63F2DE9F0474F
:10459000334901202DED028B8860FCF709F800F00B
:1045A00059F9304D43F6E83105F58C7605F50C7771
:1045B00005F55278884241DD01F083FC89460446C6
:1045C00049EC180BE86A43F6E831484301F079FCFE
:1045D00053EC182B01F0EEFA01F044FCE862F06AAB
:1045E00043F6E83149EC184B484301F06AFC53ECC0
:1045F000182B01F0DFFA01F035FCF062F86A43F69F
:10460000E83149EC184B484301F05BFC53EC182BA4
:1046100001F0D0FA01F026FCF862D8F82C0049EC41
:10462000184B43F6E8314446484301F04AFC53EC4A
:10463000182B01F0BFFA01F015FCE062E86AC5F83A
:10464000DC00F06AC6F8DC00F86AC7F8DC00D8F8CD
:104650002C10C8F8DC10BDEC028BBDE8F087000020
:10466000200000206805002070B53F4A9FED3F1AEA
:104670000D462DED048B064692ED050AD2ED070A94
:10468000B4EEE00AF1EE10FA01D230EE010A394C34
:1046900030EE600AC0EE010AB0EE000A20EE800A99
:1046A000DFED330A20EE200A84ED170A10EE100A1F
:1046B00001F098FE41EC100BFEF76AFEB0EE408A66
:1046C000F0EE608A206B01F08DFE53EC182B01F0A8
:1046D0005FFC41EC180BE06D01F084FE41EC100B27
:1046E000FEF7BAFEB0EE409AF0EE609A606B01F011
:1046F00079FE53EC192B01F04BFC53EC182B01F015
:10470000A5F901F071F93060E06D01F06BFE41EC4C
:10471000100BFEF7A1FEB0EE408AF0EE608A206B2F
:1047200001F060FE53EC182B01F032FC41EC180B49
:10473000E06D01F057FE41EC100BFEF729FEB0EEE4
:10474000409AF0EE609A606B01F04CFE53EC192B2E
:1047500001F01EFC53EC182B01F05AFD01F044F956
:104760002860BDEC048B70BDC80900200000B44374
:10477000DC0F49402000002082B0CDE9000121F08B
:10478000004001909DED000B02B051EC100B704702
:10479000EFF3108172B6436802699A4201D9026848
:1047A000026112F8013B02618268521C8260C26899
:1047B000521E81F31088C260184670478B185B1E2A
:1047C0000160C0E901320022C0E9032141611046C5
:1047D00070472DE9F0475FEA01080546EFF31086C0
:1047E00072B62FD0AC686CB369686869884201D929
:1047F00028686861944200DD14460F1A7F1CA742A6
:1048000006DB22464146FBF7C6FD686920440DE001
:10481000A4EB07093A464146FBF7BDFD08EB07014B
:104820004A462868FBF7B7FD286848446861A868CD
:10483000001BA860E8682044E860204686F31088E2
:10484000BDE8F08786F310884FF0FF30F8E7C068C6
:10485000704700001648C06A002800DA4042154937
:10486000CA6A5142002A01DB134600E00B4683422C
:1048700002DD100000D508460F49CA6A5142002ADD
:1048800001DB134600E00B46834202DD100000D539
:1048900008460A49CA6A5142002A01DB134600E071
:1048A0000B46834202DD100000D508467047000029
:1048B000680500208006002098070020B00800202E
:1048C00010B558B1084C491E0BD310F8013B5340AA
:1048D000DBB234F8133083EA1222F4E74FF6FF70AC
:1048E00010BD104610BD0000FA65000810B5054C5B
:1048F00004E000BF10F8013B5340E25C491EF9D2CE
:10490000104610BDFA64000870B50C46054600F06C
:10491000BDF865282ED007DC072849D2DFE800F073
:10492000480C11161B2025006638052840D2DFE808
:1049300000F0262B30353A000120288040F201108B
:1049400035E0022028804FF4817030E00320288079
:1049500040F203102BE0042028804FF4827026E000
:104960000520288040F2051021E0062028804FF421
:1049700083701CE06520288040F2651017E06620F7
:1049800028804FF4B37012E06720288040F267104F
:104990000DE0682028804FF4B47008E0692028807A
:1049A00040F2691003E06A2028804FF4B57020803F
:1049B00070BD0000054B10B55C6804601889088064
:1049C000A3F11B00008B108010BD00002B0C0020F9
:1049D0002DE9F0410D4600EE105A2DED028B0446F4
:1049E000B8EE408A00EE105AD0ED058A1646B8EEB1
:1049F000400AC0ED068A80ED058A80ED130A006B3F
:104A00001F46304401F05DFA9FED1E1B53EC112B45
:104A100001F0BEFA00F0E8FF00EE100A84ED0A0A89
:104A2000BDEEC00A84ED1D0A84ED380AC4E90C67A6
:104A3000606838B900EE105A0120B8EE400A84EDE3
:104A4000000A606038EE680A206A10EE101AB1F1B0
:104A50008B4F01DD401E05E010EE101A11F16A5F68
:104A600001D9401C2062400300EE100AB8EEC00AD3
:104A700030EE080ABDEEC00A84ED090ABDEC028BD7
:104A8000BDE8F081000000000000E03F0148007830
:104A900070470000100C002070B51F480024A0F1E2
:104AA0001805046004711D48C5F81D4085F82140B3
:104AB00040F8094F202144600481847217486C70CB
:104AC0001430AD1CFBF7ACFC05F108001B210460A1
:104AD000001D0460A5F805401048EC71A5F80340DE
:104AE0003430FBF79DFC0D4810214F30FBF798FC4C
:104AF0000A4810215F30FBF793FC2C706C70AC708F
:104B0000EC622C8685F832402C6205F12600AC84DC
:104B10000460848070BD0000CC000020DC0B00200D
:104B2000FCF718FDFDF704FFFDF7E6FCFDF75EFC62
:104B3000FDF780FCFDF716FDFDF748FDFDF79EFC37
:104B4000FDF760FDFDF77CFD00F00CF8FFF7FCF8C9
:104B500003489FED020A80ED070AFEE70000C84205
:104B6000C80900200849012081F83C0007490220BB
:104B700081F83C00064981F83C00064981F83C0078
:104B8000054981F83C007047C809002068050020ED
:104B90008006002098070020B00800200178012935
:104BA00004D0022917D19430FEF798BB9FED0A0A72
:104BB000002180ED040A80ED050A80ED010A80EDF8
:104BC000020A80ED030A80ED060A8183C18380ED2D
:104BD000080A2830E8E770470000000070B5017847
:104BE000012908D0022917D100F1C4019430BDE891
:104BF000704000F05BBE00F15801041D0D462046D8
:104C0000FFF73AF994ED070A294604F12400BDEEB6
:104C1000C00A84ED0C0AEAE770BD000070B52DED06
:104C2000068BB6EE089A9FED968B974C974D9FEDAD
:104C3000980A221D84ED0A0A94ED0B0A911E84ED58
:104C4000190A01F12A00FFF7B5FEA088D4ED190A70
:104C5000083880B294ED0B0AFFF760FC84ED1A0A65
:104C60008D4E9FED8C0A608886ED060A00EE100AD4
:104C70003046B8EE400A86ED050AFFF7A3FAD6EDF6
:104C80000A0A9FED861A80EE810A10EE100A01F0E2
:104C9000A9FB9FED831B53EC112B01F0ADFA00F043
:104CA000A3FE00EE100A06F1480020EE090A84ED8A
:104CB0001B0AD0ED370AF8EEE00A20EE801AD4ED98
:104CC0001A0A21EE201ABDEEC11A11EE101A09B20D
:104CD000C0F8DC1000F58C7090ED371AB8EEC11AF0
:104CE00021EE001A21EE201ABDEEC11A11EE101AA3
:104CF00009B2C0F8DC1000F58C7090ED371AB8EEF0
:104D0000C11A21EE001A21EE201ABDEEC11A11EED1
:104D1000101A09B2C0F8DC1000F58C7090ED371A4B
:104D2000B8EEC11A21EE000A20EE200A84ED180A1E
:104D3000BDEEC00A10EE101A09B2C0F8DC10606AAD
:104D400001F050FB53EC182B01F022F941EC1A0B47
:104D5000608801F0CDF853EC1A2B01F0DDF802D297
:104D60004FF4FA702860606A01F03CFB9FED4E1B27
:104D700053EC112B01F00CF941EC1A0B608801F097
:104D8000B7F853EC1A2B01F0C7F813D2606A01F0A0
:104D900029FB53EC182B01F0FBF841EC180B608851
:104DA00001F0A6F853EC182B01F0F0F902D84FF4FB
:104DB00061702860606A01F015FB9FED3D1B53ECAC
:104DC000112B01F0E5F841EC180B608801F090F828
:104DD00053EC182B01F0A0F806D229684FF4966026
:104DE000814201DC286004E0286840F26C7188424E
:104DF00013DC94ED090ADFED300A608860EE200ACA
:104E000000EE100AB8EE400AF4EEC00AF1EE10FA15
:104E100003D84FF4C860286004E0286840F63401E5
:104E2000884211DC94ED090A608860EE090A00EE00
:104E3000100AB8EE400AF4EEC00AF1EE10FA03D8F8
:104E40004FF44860286004E0286841F294118842D9
:104E500012DC94ED090ADFED190A608860EE200A81
:104E600000EE100AB8EE400AF4EEC00AF1EE10FAB5
:104E700002D84FF4FA502860BDEC068B70BD0000DC
:104E8000333333333333C33F200000201800002076
:104E900000000000000048422005002000007A4485
:104EA0001F85EB51B81EF13F000000000000D03F0D
:104EB0000AD7A3703D0AD73FCDCC0C3F8FC2753FB8
:104EC00090ED040AD0ED030A284A30EE600A10EE95
:104ED000101A80ED000A91420ADC10EE101A244AE2
:104EE000914205D8D0ED020A70EE800AC0ED020AA8
:104EF000204A8168914202DDDFED1F0A04E01F4A6B
:104F0000914203D9DFED1E0AC0ED020AD0ED0A0A74
:104F10001C4A20EE801A80ED051AD0ED0B0AD0ED68
:104F2000021A60EEA10AC0ED060AD0ED011A90ED5A
:104F30000C2A70EE611A61EE821AC0ED071A80ED3C
:104F4000010A31EE210A30EE200A10EE101A9142C9
:104F500002DD9FED0D0A06E010EE101A0B4A914299
:104F600001D99FED0B0A80ED080A704700006041EF
:104F7000000060C10000F0420000F0420000F0C2FA
:104F80000000F0C20000FA440000FA440000FAC435
:104F90000000FAC4124B134A99420CD1018849BA55
:104FA0001180418849BA5180818849BA9180C0886E
:104FB00040BAD08012E00C4B99420FD10178118099
:104FC0004178518081789180C178D18001791181B7
:104FD0004179518181799181C079D08101487047AF
:104FE00084010020BC0E0020AC010020114A10B545
:104FF000948883B214809380D1801046191BC068B6
:1050000011F5805F00DA401CD060B1F5805F00DDF3
:10501000401E00EE103ADFED080AD060B8EE400AFC
:10502000074820EE200ADFED050A80EE201A80ED09
:10503000051A10BD640E00200000B44300F8FF45BF
:10504000C8090020FFB5A1B00446BDF8906017461E
:1050500006F1090085B229466846FBF703FA8DF888
:105060000040194CBDF89000ADF8010020788DF893
:10507000030005216846FFF767F8BDF88800ADF822
:105080000500324639460DF10700FBF784F9294641
:105090006846FFF745F82078FF2813D0401C2070A1
:1050A0000A4C6FF040002168086064232A46694674
:1050B0002046FDF741F920680168C9434906FBD441
:1050C00025B0F0BD0020EAE75C010020A40200202A
:1050D00018B40021ADF800104749026840F20224DC
:1050E0008A6102790A77B0F80520ADF8002092B203
:1050F000A2F20223A2425DD01EDCB2F5817F48D02D
:105100000EDC012A30D0022A3BD0032A3CD0B2EB7D
:10511000640203D1D0F80700C1F80A0018BC704738
:10512000A2F58072033A39D0012A3ED0FE2AF5D189
:10513000C11D1B22314846E0042B4AD008DC012B5C
:105140003DD0022B42D0032BE8D1C079C870E5E7EF
:10515000052B41D0062B48D0FF2BDFD150F8072F6D
:105160008A6280888885D9E7244950F8072F343926
:1051700041F8092F42684A6002890A81807A887260
:10518000CCE7C0794870C9E7C11D1C4820222038EF
:1051900019E0D0F80700C1F80E00BFE7B0F807200B
:1051A000A1F80720407A4872B8E7B0F80700A1F8E4
:1051B0000500B3E7C11D114810221B3003E0C11DDB
:1051C0000E4810222B3018BCFBF7E5B8C079887068
:1051D000A4E7C0790871A1E750F8072F41F82E2FF6
:1051E00082888A808079887198E750F8072FC1F803
:1051F00022208088C88491E7B4000020100C002091
:105200002DE9F041A527414C4148FFF720FB414ED5
:105210000025706172E03E48FFF7BAFA307094F8EA
:10522000861006294BD2DFE801F003131D2D384DFF
:10523000B8420AD1012184F88610B4F88710A31D62
:105240004A1CA4F88720C85458E0A4F8875055E0B9
:10525000A080B4F88710A31D4A1CA4F88720C85466
:10526000022017E0A188A31D41EA0021A180B4F823
:1052700087104A1CA4F88720C854A08877281ED21B
:10528000032007E0B4F88710A31D4A1CA4F8872068
:10529000C854042084F8860030E0B4F88710A31DB9
:1052A0004A1CA4F88720C854B4F88700052825D1E3
:1052B0000521A01D00F0E6FA08B10520EAE784F810
:1052C0008650C2E7A288B4F887100932914204D20E
:1052D000A31D4A1CA4F88720C854A188B4F88700ED
:1052E000093188420AD384F88650A4F88750A01D5B
:1052F00000F0AAFA10B1A01DFFF7EAFE0448FFF77C
:10530000A6FA002887D1BDE8F08100005C0B0020E0
:10531000CC120020B4000020084910B54FF40072F0
:10532000A1F50070FDF7A0FA0549BDE810404FF463
:105330008062A1F11800FFF741BA0000CC100020F4
:10534000E412002002492422A1F12400FDF71CBA36
:10535000380B0020002847D0002945D00278437838
:1053600042EA0322C2F30A020A8042788378D20812
:1053700042EA4312C2F30A024A808278C378920951
:1053800042EA8302037942EA8322C2F30A028A8054
:1053900002794379520842EAC312C2F30A02CA8070
:1053A0004279C2F301128A7242799209CA728279F1
:1053B000C37942EA03228A81027A437A42EA0322CB
:1053C000CA81827AC37A42EA03220A82027B8A7401
:1053D000427BCA74827BC37B42EA03228A82027CBC
:1053E000407C42EA002008817047000009490A4ACF
:1053F00091ED050A1288BDEEC00A12B210EE100A35
:1054000091ED0A0A00B2BDEEC00A10EE101A09B200
:10541000FEF742BFC80900201C00002010B51A4C3E
:1054200001202061E069B0F5C87F1EDB4103A1F5D2
:10543000C04100EE101AD4ED020AB8EEC00A30EEF8
:10544000C00A84ED020AB5EEC00AF1EE10FA03D8E4
:10545000B7EE000A84ED020A216AC0F1030001EBF5
:1054600040302062E0620320E0619FED080B51ECC8
:10547000100B00F0B9FA00EE100AD4ED020A30EE7B
:10548000800A84ED020A10BD4C0C00206EDBB66D64
:10549000DB6CEB402DE9F04130EE411A70EEE11A81
:1054A0002DED048B0122BDEEC11A644CBDEEE18AE4
:1054B00020462678C06902252EB32146FDEEE00A7B
:1054C000D1ED031AD1ED052ABDEEC00A0323002158
:1054D000012E3CD02746022E97ED042A97ED063A7E
:1054E00053D0032E17D1B8EEC21AB4EEC31AF1EEA0
:1054F00010FA6DDDB8EEE11AB4EEE21AF1EE10FA30
:1055000066DD21612AE011EE101A002900DA494215
:10551000814204DD2270BDEC048BBDE8F08100F017
:10552000D0FC9FED471B53EC112B00F031FD41ECFB
:10553000190B18EE100A002800DA404200F0C1FCF6
:1055400053EC192B00F022FEE5D22570E3E7B8EE0C
:10555000E11AB4EEE21AF1EE10FA01DDE1601CE0AE
:1055600010EE102A002A00DA5242012A01DC2170D2
:1055700062E018EE101A002900DA49428142CADDC1
:1055800010EE900A1EE040421EE0F8EEC21AF4EE61
:10559000C31AF1EE10FA02DD21612170BBE710EEB3
:1055A000902A002A00DA5242012A02DC217021618D
:1055B000B1E711EE101A002900DA49428142AADD52
:1055C00010EE100A0028DEDB5A28A4DD2370A2E7C3
:1055D000B8EEE11AB4EEE21AF1EE10FA01DDE16084
:1055E000B3E7B8EEC21AB4EEC31AF1EE10FA01DD59
:1055F00021618FE710EE900A002800DA404201286E
:1056000009DC10EE100A002800DA4042012802DC12
:105610002170216110E010EE900A002800DA40426B
:10562000012801DC2270216110EE100A002800DA46
:10563000404201288ADC2570E1606CE720000020F0
:105640009A9999999999D93F70B50C462DED028B8D
:10565000B0EE608AF0EE408A0546D1ED000A90ED8A
:10566000000AF0EE481AB0EE681AFFF713FF414A3D
:10567000107800283FD0012840D002285CD00328B1
:1056800039D11069401C106101280BDC94ED000A2F
:10569000D2ED060A30EE480A80EE201A82ED111A89
:1056A00082ED138AD068401CD06001280BDC95ED98
:1056B000000AD2ED050A30EE680A80EE201A82ED6B
:1056C000101AC2ED128A00EE100AD2ED120A92ED03
:1056D000101AB8EEC00A41EE000AC5ED000AD2ED7C
:1056E000040A92ED130A92ED111AF8EEE00A01EEA7
:1056F000200A84ED000ABDEC028B70BDD068401C0E
:10570000D06001280BDC95ED000AD2ED050A30EEE1
:10571000680A80EE201A82ED101AC2ED128A00EE9D
:10572000100AD2ED120A92ED101AB8EEC00A41EE3C
:10573000000AC5ED000ADEE71069401C106101286F
:105740000BDC94ED000AD2ED060A30EE480A80EE3A
:10575000201A82ED111A82ED138A00EE100AD2EDA2
:10576000130A92ED111AB8EEC00A41EE000AC4ED18
:10577000000AC0E72000002010B50D490D48FCF7D5
:105780007DFF0B490B4814314830FCF777FF09487F
:105790009FED090A3038002180ED030A80ED010AEF
:1057A000F2EE0A0A0161C0ED020A80ED000A10BDA6
:1057B000EC0000207C0C00200000000010B50D4C17
:1057C00004F1780094ED080AF8EEC00A94ED020A9C
:1057D000FEF742FC94ED260A04F1300084ED000A45
:1057E000D4ED010AFEF738FC94ED140A84ED050AA5
:1057F00010BD00004C0C0020104810B501680129B4
:1058000001DB491C01600E4C962909DB94ED020A6C
:10581000DFED0C0A002130EE600A84ED020A01601F
:10582000FFF7CCFF94ED050ABDE81040BDEEC00ABD
:1058300010EE100A00B2FEF755BD00001C0000205B
:105840004C0C002000FB9F4630B50C46050014D0E0
:10585000022C12D90A48A11E02882846FFF730F808
:105860002919C2B211F8023C9A4206D111F8011C62
:10587000B1EB102F01D1012030BD002030BD000060
:105880008201002030B50C4605000CD0022C0AD94C
:10589000FF22611EFFF72AF8291911F8011C814225
:1058A00001D1012030BD002030BD000030B5D0E96D
:1058B0000323D21A404B02604FF4FA751C78012C76
:1058C0000CD0022C3AD102F10F031E2B836801D8B1
:1058D00013448360AB4236DD856038E0002A14460D
:1058E00000DA6442AC42846801DC1444846041F212
:1058F0008835AC4202DC6D42AC4200DA856000EED5
:10590000102AD1ED030AB8EEC00A20EE800ABDEEDF
:10591000C00A10EE102A426190ED020AD1ED040A8D
:10592000B8EEC00A20EE800ABDEEC00A10EE101AD2
:10593000816111445A68914201DD026230BD5242D8
:1059400037E0016230BD1D4CA34200DA846000EEF6
:10595000102AD1ED030AB8EEC00A20EE800ABDEE8F
:10596000C00A10EE103A436190ED020AD1ED040A2C
:10597000B8EEC00A20EE800ABDEEC00A10EE104A52
:1059800084614568D1ED050A551B00EE105A42604E
:105990001A19B8EEC00A20EE200ABDEEC00A10EEB9
:1059A000101AC1611144642901DD6421C9E76FF057
:1059B00063029142C5DAC0E7140000200CFEFFFF2D
:1059C0000248B0F94001FEF7B1BC0000200D0020F4
:1059D00081F00041704780F00040704721F00041A5
:1059E000704720F00040704721F00042A2F1605261
:1059F000B2F5801F01F0004328BFD2F17F6C0BD9B4
:105A00005FEA001C43EAC20242EB507018BF7047C5
:105A100028BF20F001007047B2F5801FBCBF1846B8
:105A200070474FEA410C1CF5001F02D2084600F0F7
:105A30004FBD70B500F056FB00000089FFF7F6BFC0
:105A40004FF00040A0F580007047000010B591EACB
:105A5000030F48BF83F0004300F1E283841A71EB27
:105A6000030C05D2121943EB0C03001B61EB0C0174
:105A7000DFF824E14FEA1154A4EB135C1EEA430F54
:105A800018BF9EEA445F73D023EA0E03DCF1200EB8
:105A900021EA045143F4801332D322FA0CFE10EBB6
:105AA0000E0023FA0CFE41EB0E01CCF1200E03FA9E
:105AB0000EFE10EB0E0051F10001B1F5801FCCF18C
:105AC000200E32D201EB045112FA0EF2BDE8104062
:105AD00058BF7047401C38BF5FEA420218BF70478A
